:020000040000fa
:080000000002040000000000f2
:020000040000fa
:040008009a03000057
:020000040000fa
:04000c00dc03000011
:020000040000fa
:040010001c040000cc
:020000040000fa
:04001400ba0300002b
:020000040000fa
:04001800fc030000e5
:020000040000fa
:04001c00b00400002c
:020000040000fa
:040020003c0400009c
:020000040000fa
:04002400b004000024
:020000040000fa
:04002800b004000020
:020000040000fa
:04002c00b00400001c
:020000040000fa
:04003000b004000018
:020000040000fa
:04003400b004000014
:020000040000fa
:04003800b004000010
:020000040000fa
:04003c00b00400000c
:020000040000fa
:04004000b004000008
:020000040000fa
:04004400b004000004
:020000040000fa
:04004800b004000000
:020000040000fa
:04004c00b0040000fc
:020000040000fa
:04005000b0040000f8
:020000040000fa
:04005400860400001e
:020000040000fa
:04005800b0040000f0
:020000040000fa
:04005c00b0040000ec
:020000040000fa
:04006000b0040000e8
:020000040000fa
:04006400b0040000e4
:020000040000fa
:04006800b0040000e0
:020000040000fa
:04006c00b0040000dc
:020000040000fa
:04007000b0040000d8
:020000040000fa
:04007400b0040000d4
:020000040000fa
:04007800b0040000d0
:020000040000fa
:04007c00b0040000cc
:020000040000fa
:04008000b0040000c8
:020000040000fa
:04008400b0040000c4
:020000040000fa
:04008800b0040000c0
:020000040000fa
:04008c00b0040000bc
:020000040000fa
:04009000b0040000b8
:020000040000fa
:04009400b0040000b4
:020000040000fa
:04009800b0040000b0
:020000040000fa
:04009c00b0040000ac
:020000040000fa
:0400a000b0040000a8
:020000040000fa
:0400a400b0040000a4
:020000040000fa
:0400a800b0040000a0
:020000040000fa
:0400ac00b00400009c
:020000040000fa
:0400b000b004000098
:020000040000fa
:0400b400b004000094
:020000040000fa
:0400b800b004000090
:020000040000fa
:0400bc00b00400008c
:020000040000fa
:0400c000b004000088
:020000040000fa
:0400c400b004000084
:020000040000fa
:0400c800b004000080
:020000040000fa
:0400cc00b00400007c
:020000040000fa
:0400d000b004000078
:020000040000fa
:0400d400b004000074
:020000040000fa
:0400d800b004000070
:020000040000fa
:0400dc00b00400006c
:020000040000fa
:0400e000b004000068
:020000040000fa
:0400e400b004000064
:020000040000fa
:0400e800b004000060
:020000040000fa
:0400ec00b00400005c
:020000040000fa
:0400f000b004000058
:020000040000fa
:0400f400b004000054
:020000040000fa
:0400f800b004000050
:020000040000fa
:0400fc00b00400004c
:020000040000fa
:04010000b004000047
:020000040000fa
:04010400b004000043
:020000040000fa
:04010800b00400003f
:020000040000fa
:04010c00b00400003b
:020000040000fa
:04011000b004000037
:020000040000fa
:04011400b004000033
:020000040000fa
:04011800b00400002f
:020000040000fa
:04011c00b00400002b
:020000040000fa
:04012000b004000027
:020000040000fa
:04012400b004000023
:020000040000fa
:04012800b00400001f
:020000040000fa
:04012c00b00400001b
:020000040000fa
:04013000b004000017
:020000040000fa
:04013400b004000013
:020000040000fa
:04013800b00400000f
:020000040000fa
:04013c00b00400000b
:020000040000fa
:04014000b004000007
:020000040000fa
:04014400b004000003
:020000040000fa
:04014800b0040000ff
:020000040000fa
:04014c00b0040000fb
:020000040000fa
:04015000b0040000f7
:020000040000fa
:04015400b0040000f3
:020000040000fa
:04015800b0040000ef
:020000040000fa
:04015c00b0040000eb
:020000040000fa
:04016000b0040000e7
:020000040000fa
:04016400b0040000e3
:020000040000fa
:04016800b0040000df
:020000040000fa
:04016c00b0040000db
:020000040000fa
:04017000b0040000d7
:020000040000fa
:04017400b0040000d3
:020000040000fa
:04017800b0040000cf
:020000040000fa
:04017c00b0040000cb
:020000040000fa
:04018000b0040000c7
:020000040000fa
:04018400b0040000c3
:020000040000fa
:04018800b0040000bf
:020000040000fa
:04018c00b0040000bb
:020000040000fa
:04019000b0040000b7
:020000040000fa
:04019400b0040000b3
:020000040000fa
:04019800b0040000af
:020000040000fa
:04019c00b0040000ab
:020000040000fa
:0401a000b0040000a7
:020000040000fa
:0401a400b0040000a3
:020000040000fa
:0401a800b00400009f
:020000040000fa
:0401ac00b00400009b
:020000040000fa
:0401b000b004000097
:020000040000fa
:0401b400b004000093
:020000040000fa
:0401b800b00400008f
:020000040000fa
:0401bc00b00400008b
:020000040000fa
:0401c000b004000087
:020000040000fa
:0401c400b004000083
:020000040000fa
:0401c800b00400007f
:020000040000fa
:0401cc00b00400007b
:020000040000fa
:0401d000b004000077
:020000040000fa
:0401d400b004000073
:020000040000fa
:0401d800b00400006f
:020000040000fa
:0401dc00b00400006b
:020000040000fa
:0401e000b004000067
:020000040000fa
:0401e400b004000063
:020000040000fa
:0401e800b00400005f
:020000040000fa
:0401ec00b00400005b
:020000040000fa
:0401f000b004000057
:020000040000fa
:0401f400b004000053
:020000040000fa
:0401f800b00400004f
:020000040000fa
:0401fc00b00400004b
:020000040000fa
:04020000b004000046
:020000040000fa
:04020400b004000042
:020000040000fa
:04020800b00400003e
:020000040000fa
:04020c00b00400003a
:020000040000fa
:04021000b004000036
:020000040000fa
:04021400b004000032
:020000040000fa
:04021800b00400002e
:020000040000fa
:04021c00b00400002a
:020000040000fa
:04022000b004000026
:020000040000fa
:04022400b004000022
:020000040000fa
:04022800b00400001e
:020000040000fa
:04022c00b00400001a
:020000040000fa
:04023000b004000016
:020000040000fa
:04023400b004000012
:020000040000fa
:04023800b00400000e
:020000040000fa
:04023c00b00400000a
:020000040000fa
:04024000b004000006
:020000040000fa
:04024400b004000002
:020000040000fa
:04024800b0040000fe
:020000040000fa
:04024c00b0040000fa
:020000040000fa
:04025000b0040000f6
:020000040000fa
:04025400b0040000f2
:020000040000fa
:04025800b0040000ee
:020000040000fa
:04025c00b0040000ea
:020000040000fa
:04026000b0040000e6
:020000040000fa
:04026400b0040000e2
:020000040000fa
:04026800b0040000de
:020000040000fa
:04026c00b0040000da
:020000040000fa
:04027000b0040000d6
:020000040000fa
:04027400b0040000d2
:020000040000fa
:04027800b0040000ce
:020000040000fa
:04027c00b0040000ca
:020000040000fa
:04028000b0040000c6
:020000040000fa
:04028400b0040000c2
:020000040000fa
:04028800b0040000be
:020000040000fa
:04028c00b0040000ba
:020000040000fa
:04029000b0040000b6
:020000040000fa
:04029400b0040000b2
:020000040000fa
:04029800b0040000ae
:020000040000fa
:04029c00b0040000aa
:020000040000fa
:0402a000b0040000a6
:020000040000fa
:0402a400b0040000a2
:020000040000fa
:0402a800b00400009e
:020000040000fa
:0402ac00b00400009a
:020000040000fa
:0402b000b004000096
:020000040000fa
:0402b400b004000092
:020000040000fa
:0402b800b00400008e
:020000040000fa
:0402bc00b00400008a
:020000040000fa
:0402c000b004000086
:020000040000fa
:0402c400b004000082
:020000040000fa
:0402c800b00400007e
:020000040000fa
:0402cc00b00400007a
:020000040000fa
:0402d000b004000076
:020000040000fa
:0402d400b004000072
:020000040000fa
:0402d800b00400006e
:020000040000fa
:0402dc00b00400006a
:020000040000fa
:0402e000b004000066
:020000040000fa
:0402e400b004000062
:020000040000fa
:0402e800b00400005e
:020000040000fa
:0402ec00b00400005a
:020000040000fa
:0402f000b004000056
:020000040000fa
:0402f400b004000052
:020000040000fa
:0402f800b00400004e
:020000040000fa
:0402fc00b00400004a
:020000040000fa
:04030000b004000045
:020000040000fa
:04030400b004000041
:020000040000fa
:04030800b00400003d
:020000040000fa
:04030c00b004000039
:020000040000fa
:04031000b004000035
:020000040000fa
:04031400b004000031
:020000040000fa
:04031800b00400002d
:020000040000fa
:04031c00b004000029
:020000040000fa
:04032000b004000025
:020000040000fa
:100400004f0721000eff27000e018800000020008a
:100410000000e000020032000001200020028800fd
:1004200014000700710107000000e00003003a001b
:10043000408c210001002000020037000000200055
:1004400001002000810f70004220ae000f00070065
:10045000000020000000e0004220ae00000002008a
:1004600000000000e6180200000000000040da0072
:100470000000fe00400820000000e0000200320002
:10048000002020009001880000000600a1028800e2
:10049000800478000000eb001f003700e284440075
:1004a00054a0b4009905ba00e284440054a0b400fa
:1004b0009906ba00e284440054a0b4000006eb00a0
:1004c000476fde00fd07b200ae018800636ce100fb
:1004d00003003a000ad801000000eb000e003700cc
:1004e000606ce10008003a00004deb000a05e800ee
:1004f000020039003420ec000af0a0008b05e9006e
:10050000f9ff3e00040037006168e100010032009d
:100510000086eb000b00070019c7ba001905ba00e6
:100520000e04e00003003a000a00e000dbff3a009e
:1005300000000600fe07b200ae0288008a047800c0
:10054000f5ff37000cd0a300e20f4d001c0039006e
:1005500089027800354dba000a05e800020039002a
:100560003420ec000af0a0008b05e9000f003200f7
:10057000254dba000a05e800020039003420ec00dd
:100580000af0a0008b05e900080032000c00e00032
:100590000600320015cdba000a05e8000200390055
:1005a0003420ec000af0a0008b05e9008984e80003
:1005b00054a0b4000b00e000e2ff3a000000060087
:1005c0009902ba00055d78008b05e900f7ff32005b
:1005d000c82ade00055d78008b05e900f3ff3200d4
:1005e0000c00e000f1ff320019ddba00eeff370029
:1005f0006100e10001003200100005005400f80025
:1006000050102000a002880000f927001000ba0056
:100610005400f90007e02b0007f0a7008703d10082
:100620000703780001c4fe000003eb000120200056
:1006300090018800c1912900111303008703e9008c
:10064000fdff3a0000f0a6000000050000f0a00049
:1006500080c4fe0086037800f3ff37000408200002
:10066000010037000002eb006100e10001003200f0
:10067000100005003200f8003400f8008102780014
:10068000930188003200be000100e0000c0032003f
:100690000470a70000f0a00032037800c733de002a
:1006a000848343004220af008703e800a70188004d
:1006b000f607b2007f30e100040032002000200085
:1006c0003400f9003200f900000006008100e90062
:1006d0000500e00003003a00018009003210030029
:1006e000e8ff37000180090032900300d561ae00b9
:1006f000e4ff370030002000f1ff370050052000f4
:10070000b00e8800a00a2000b00e8800d3e1a80037
:100710000000060050052000b00e8800a00a20004e
:10072000b00e8800d3e1a900000006004a180400ba
:10073000000000003600f800809fbe00829fbe00cf
:10074000849fbe00869fbe000000fa00c028a9005a
:100750000000eb00ac0a07000080fa004f03be0067
:100760004f02be004f01be004f00be003600f90030
:10077000004006003600f800809fbe00829fbe0049
:10078000849fbe00869fbe000000fa00a30a0700f7
:10079000c048a900100020009b0a07000080fa0052
:1007a0004f03be004f02be004f01be004f00be000f
:1007b0003600f900004006003600f800809fbe00b9
:1007c000829fbe00849fbe00869fbe000000fa008c
:1007d000c068a900200020008b0a07000080fa00f2
:1007e0004f03be004f02be004f01be004f00be00cf
:1007f0003600f900004006003600f800809fbe0079
:10080000829fbe00849fbe00869fbe000000fa004b
:10081000c088a900300020007b0a07000080fa0091
:100820004f03be004f02be004f01be004f00be008e
:100830003600f900004006003600f800809fbe0038
:10084000829fbe00849fbe00869fbe000000fa000b
:10085000c608a900700020006b0a07000080fa009b
:100860004f03be004f02be004f01be004f00be004e
:100870003600f900004006003600f800809fbe00f8
:10088000829fbe00849fbe00869fbe000000fa00cb
:100890002146800000102000008060000000e00081
:1008a00003003200c508a900c0002000560a070056
:1008b0002146800000022000008060000000e0006f
:1008c00003003200c4a8a900900020004e0a0700cf
:1008d00020468000700060000000e000030032004d
:1008e000c488a900a0002000470a07002046800015
:1008f000610060000000e00003003200c408a900ad
:10090000b0002000400a0700ffff37003600f80063
:10091000809fbe00829fbe00849fbe00869fbe0057
:100920000000fa000168a9000200370044c2bf00bd
:1009300070090700f0118000620060000000e00014
:10094000faff32000080fa004f03be004f02be00e3
:100950004f01be004f00be003600f9000040060007
:100960000040da000000fe00889fbe00800478008e
:10097000908380000000e00004003a000e000700b1
:100980000084eb000000e000080035009883800040
:100990000900e000050032000900440006000700dd
:1009a0000000e00001003d000084eb00080078003a
:1009b0004f04be0000000600800078000100e00047
:1009c00003003a000000200090838800000005002a
:1009d0000080eb0002002000828f500002003e00e9
:1009e000918388000000eb00000006000000050075
:1009f000839f68000100e00002003d0060001000dd
:100a0000e08018000300e00002003d0060011100da
:100a1000e0811900050007004f00e00002003b00e4
:100a200060001000e0801800000006006022b8009e
:100a3000060220000000d0008180d2000482d20093
:100a40008582d2000000a0000202520083825a0078
:100a5000030031000202420083824a000000a1002c
:100a60000603e900f3ff3a0000000600efff07006d
:100a70000400be0000000600889fbe008a9fbe00e2
:100a80008c9fbe0021062100128380000200e0003e
:100a90000b003a0064814000128388006283880062
:100aa000a100980051838800214190000204a00019
:100ab000a2409800614190000204a000e24098002a
:100ac000670440004244de004244dd00548380005d
:100ad0000100200009002000818454002d00200026
:100ae000050009008d04d800800678000886e8001b
:100af0000c0646008001eb000200370013002000c6
:100b00000b027800a44090000108a300020032000c
:100b10000a003700120a780014017800a240900001
:100b20000108a300fbff320088004200810f510042
:100b3000020039000800e00041003d009405780003
:100b40000b00a100848f5500edff3e00e18f5100a6
:100b5000eaff3a008d0f540002003600890f54005e
:100b6000130039006141b8006148b900b4ff2f009b
:100b7000050020000000520081805a00800f5100c3
:100b8000818f5900020035006405440009003700d8
:100b9000000020003a00200000055500080545002f
:100ba000050009000985d8008985b90001003700d2
:100bb0000c0578000a0078006bff0700e10f400089
:100bc00005003a00640544000a00780066ff07004b
:100bd000e10f40002b003200618380008008780024
:100be00061838000e481400021419000830f500028
:100bf000020032000204a000010037000204a1003c
:100c0000a2409800640555000a0540000a087800d3
:100c10006a83880021062100010d7800628380002c
:100c2000a24090000104a00021419800a040900043
:100c30000104a100214098008001eb00b0ff3700c3
:100c400051838800810f5100070036001101be005a
:100c50007283880083838800940878000041eb0049
:100c600051838000a240980053838000030a7800db
:100c7000a44090000104a0002142980064004200ba
:100c8000010037000000eb004f06be004f05be001c
:100c90004f04be00000006000000e0000800320023
:100ca0006400500051838000810f5000010031002a
:100cb00050838800a04090000104a10021409800ca
:100cc00000000600889fbe008a9fbe000004be0090
:100cd0000900e00007003a000000eb000800e00017
:100ce0003600320008007800ebff07000000eb0040
:100cf000320037000800e00003003a0009007800e5
:100d00005dff07002d003700640054009005780057
:100d100068f897000008a30002003200080078007d
:100d2000ddff07000900780053ff0700800478000a
:100d30000000eb000900e00020003200888f540022
:100d40001b00320069bd97000905550042d5de0041
:100d500088855500c2ddde000a0178008b0f550042
:100d6000010036000b0178004211dd008800780098
:100d70000900780014000700888f54000e0031002d
:100d80004255dd000a854400880f55000a003600f0
:100d90000804550042c4de004244dd0008844400db
:100da0007083800081838000008cbe0002003700c9
:100db0000800780001003700090078004f05be00e8
:100dc0004f04be00000006008001780002003700da
:100dd000b15978000201e9000200e000fcff3a008e
:040de0000000060009
:020000040000fa
:100de400004b0000452d0000446200006721000014
:100df400436c0000656100007200000030310000a7
:100e04003233000034350000363700003839000032
:100e14004142000043440000454600000028000011
:100e24006e7500006c6c0000207000006f6900009b
:100e34006e7400006572000029000000303100006b
:100e440032330000343500003637000038390000f2
:100e540061620000636400006566000000460000f3
:100e64004c4f000041540000533f00002077000025
:100e7400726f00006e670000206600006f72000051
:100e84006d61000074740000657200002069000048
:100e94006e730000746100006c6c000065640000f7
:100ea400210000003f3f00003f00000048610000b7
:100eb4006c6c00006f200000667200006f6d000013
:100ec400205200006f620000436f00006d2000009c
:100ed400256400000000000001010000020200007f
:080ee4000404000004000000fa
:020000040000fa
:100eec000200fa0080032100000f78001e00780039
:100efc000000e00013003200206f2800801f7800f3
:100f0c000040eb001b0307008f87e9001e007800f0
:100f1c00104078000004a2000004e0000a00320037
:100f2c00306f2800801f78000040eb001103070091
:100f3c008f87e9001e00780011c0b30001487800cb
:100f4c0001003700000000000080fa0000000600dd
:100f5c00a800fa0020979800319798000000eb0049
:100f6c00300798000d0037003e5890000004e00058
:100f7c0003003a003e0090000080fa0000000600da
:100f8c003e5890008040780020002000a807070001
:100f9c003e0090000000e800300798002e90900072
:100fac0090407800315f9800be58900050c2b3005a
:100fbc0000c068000080fb000000ea004f00de006b
:100fcc0000407800ae9090008100e80021979800d6
:100fdc000004e000e4ff3a002e909000904078006e
:100fec0050c2b30080cf50000a003a002e909000ff
:100ffc000000e8002097980051c2b30020002000a8
:10100c008b0707003e0090000000e80030079800b6
:10101c00d60237000040eb00205f9800ae589000dd
:10102c00314f9800be489000114f98009e48900098
:10103c00014f98007e004700200f9800ae089000ea
:10104c00310f980000702800400f98002e909000ef
:10105c00104078000000fb00b1022000810f50000e
:10106c0014003200b1022000810f500007003c0038
:10107c0001022000810f50000b00320031022000d1
:10108c00810f5000130032001a003700d1022000eb
:10109c00810f50000b00320001032000810f500023
:1010ac0010003200130037000e4890000004e000de
:1010bc0016003a002e90900090407800014f980056
:1010cc00130037001e4890000040e800104f9800b5
:1010dc000f0037003e4890000040e800304f980069
:1010ec000b0037002e5890000040e800205f98005d
:1010fc00070037002e90900090407800a0c2b300fb
:10110c0080cf5000060032001800370000000000ad
:10111c002e9090000000e80020979800cbff37003d
:10112c003e9090000080e900309798003e9090002f
:10113c0090007800210798002e0090000000e0003d
:10114c0006003d002e0090000000ea0020079800e9
:10115c001e4890000040e800104f98002e90900020
:10116c000000e80020979800190037000000eb0001
:10117c00200798000c0037002e009000ea00b90000
:10118c00800078002e909000104078000000fb004a
:10119c000003b10000804000200798002e909000c2
:1011ac000000e800209798002e9090009040780066
:1011bc00f0c2b30080cf5000050034002e90900098
:1011cc009040780090c3b30080cf5000eaff340009
:1011dc001e4890000004e000020032000040eb00ca
:1011ec00205f98002e90900090407800e0c2b300f1
:1011fc0080cf50002a003a002e9090000000e800aa
:10120c00209798002e90900090407800a0c2b300d8
:10121c0080cf500009003a003e9090000080e90019
:10122c00309798003e909000100f78002e90900010
:10123c000000e800209798001b0037000000eb002e
:10124c00000f78000b0037001e007800ea00b90090
:10125c00800078002e909000104078000000fb0079
:10126c000003b100008f40002e9090000000e800b9
:10127c00209798002e90900090407800f0c2b30018
:10128c0080cf5000080034002e90900090407800e1
:10129c0090c3b30080cf5000ebff34000200370046
:1012ac000080eb00000f78000040eb00405f9800de
:1012bc00ce589000214f98002e909000104078004e
:1012cc000000fb0081062000810f50000d00320051
:1012dc00c1062000810f500003003200c104200021
:1012ec00810f50000e003a002e4890000040e8009c
:1012fc00204f98002e9090000000e8002097980056
:10130c00070037004e5890000040e800405f9800fe
:10131c002e9090000000e80020979800000000003c
:10132c002e90900090407800315f98003e589000cd
:10133c000000fb00ae9090008100e800219798001f
:10134c00cf80de008207200003002000820f5000b7
:10135c00838f5800aa013e0000060100a50137004a
:10136c00a7013700a6013700a5013700a4013700fb
:10137c00a3013700a2013700a1013700a0013700fb
:10138c009f0137009e0137009d0137009c013700fb
:10139c009b0137009a0137009901370098013700fb
:1013ac0097013700960137009501370094013700fb
:1013bc0093013700920137009101370090013700fb
:1013cc008f0137008e0137008d0137008c013700fb
:1013dc008b0137008a0137008901370088013700fb
:1013ec0087013700860137008501370084013700fb
:1013fc0083013700820137008101370080013700fb
:10140c007f0137007e0137007d0137007c013700fa
:10141c007b0137007a0137007901370078013700fa
:10142c0077013700760137007501370074013700fa
:10143c0073013700720137007101370070013700fa
:10144c006f0137006e0137006d0137006c013700fa
:10145c006b0137006a0137006901370068013700fa
:10146c0067013700660137006501370064013700fa
:10147c00530137006201370051013700600137001a
:10148c005f0137005e0137005d0137005c013700fa
:10149c005b0137005a0137005901370058013700fa
:1014ac0057013700560137005501370054013700fa
:1014bc0053013700520137005101370077003700d4
:1014cc004f0137004e0137004d0137004c013700fa
:1014dc004b0137004a0137004901370048013700fa
:1014ec004701370046013700290037009e003700be
:1014fc00330137003201370031013700400137002a
:10150c00990037003e0137003d0137003c013700a0
:10151c003b0137000a003700570037005f003700e7
:10152c00370137003601370024003700340137000b
:10153c005a003700320137003101370055003700af
:10154c002e4890000004e000090032003e9090000c
:10155c000080e900309798003e90900010017800d0
:10156c003e009000cf80de000089be007f01370076
:10157c003e9090000080e900309798003e909000db
:10158c0010007800be009000010878007701370049
:10159c003e9090000080e900309798003e909000bb
:1015ac001000780000407800605f98003e089000c2
:1015bc000000e800300f9800200137003e909000aa
:1015cc000080e900309798003e90900090007800e1
:1015dc00210f98002e0890000000e00002003a0055
:1015ec0010712800200f98001e0078000000e00009
:1015fc0002003d0000712200000f78000000eb009b
:10160c0010079800030037001e0090000000e8004f
:10161c00100798002e089000104078000080fb0006
:10162c000000ea004f00de0000407800ae08900099
:10163c008100e800210f98000004e0000300320054
:10164c001e0090009e0f5000efff35002e089000fa
:10165c000000e900200f9800ae089000310f9800b0
:10166c001e0090000000ea00ae08900000804000d0
:10167c00200f9800f10037003e4890000004e00075
:10168c00040032001e0078000000e00001003a0067
:10169c001e0fe80000722800400f9800be58900002
:1016ac0000c7b30080cf500009003a003e90900074
:1016bc000080e900309798003e9090001000780070
:1016cc00cf80de006007980071079800110037008a
:1016dc002e4890000004e000060032003e9090007e
:1016ec0064005000309798003e9090001000be00af
:1016fc00060037003e9090000080e900309798007b
:10170c003e909000100078008000eb00600798007d
:10171c0071079800be589000f0c6b30080cf5000ff
:10172c000a003200be58900050c7b30080cf500062
:10173c0003003a00a0002000010020000200370046
:10174c000001200001002000020037008000200072
:10175c0001002000000f9800110f98000040eb00d2
:10176c00004f9800220037002e4890000004e00043
:10177c00060032003e9090006400500030979800b4
:10178c003e9090001000be00060037003e90900086
:10179c000080e900309798003e909000100078008f
:1017ac00cf80de0060079800710798006e009000f3
:1017bc00fe009000e00f5000e08f580008003d0044
:1017cc00d0c2b300004f98006e009000fe00900055
:1017dc0060001000e0801800600798007107980006
:1017ec00a000200001002000000f9800110f9800ad
:1017fc007e0047005008b000200f9800ae08900003
:10180c00310f9800ee0090007e00900001007000f7
:10181c0000f0a7000000ea000000ea004f00de0024
:10182c00505f98001e0078000000e00003003a00b2
:10183c005e5890000004e0001a0032002e08900060
:10184c000000e900200f98006e009000fe00900050
:10185c000e0990009e09900081fc070000007800a2
:10186c00ce08900000804000904078002e08900038
:10187c00014878000e0990009e0990006e009000bf
:10188c00fe00900066fc0700600798007107980046
:10189c006e009000fe009000e00f5000e08f5800aa
:1018ac00e6ff3a001e0078000000e00011003d0049
:1018bc002e5890000004e000100032000e489000fa
:1018cc000080fb000000ea004f00de00ae0090003c
:1018dc00008f50000a0037002e0890000000e9002d
:1018ec00200f98002e08900001c3b3000148780027
:1018fc00030037000000000001003700000000006a
:10190c00be0890002e089000008050009e0f5000e2
:10191c00f1ff35003e4890000004e000400032002a
:10192c005e5890000004e0003f003200be5890006a
:10193c0080c7b30080cf500004003200be58900026
:10194c0080c5b30080cf50000d003a002e089000e7
:10195c000000e900200f98002e089000be5890005f
:10196c00014878002e0890000000e900200f980034
:10197c002e08900001c3b300014878002f003700f7
:10198c00be589000f0c6b30080cf500028003a003b
:10199c002e0890009040780000c3b30080cf500018
:1019ac00250032002e0890000000e900200f98005e
:1019bc002e08900001c3b300014878001f003700c7
:1019cc0010732800200f9800ae089000310f98007b
:1019dc00030037003e0890000000e800300f98002c
:1019ec003e089000104078000004e000f9ff3a0037
:1019fc00120037002e9090000000e900209798000c
:101a0c0040752800200f9800ae089000310f980008
:101a1c003e08900063004000300f9800070037002c
:101a2c000000000005003700000000000300370034
:101a3c00000000000100370000000000be0890000c
:101a4c002e089000008f50002e0090009e00780011
:101a5c00808f5000030034000000eb00100798004a
:101a6c00080037002e0090009e0050000e48900099
:101a7c000080fb000000ea004f00de0000805000f8
:101a8c00100798001e4890000004e0000d003a007a
:101a9c000600370001c2b30020002000e404070058
:101aac003e0090000000e800300798001e009000f7
:101abc000000e900100798001e0090000000e000f4
:101acc00f4ff3d000e4890000004e00013003200cb
:101adc000e4890008040780020002000d4040700bd
:101aec003e0090000000e800300798000b00370023
:101afc002e08900010407800ae0890008100e8009d
:101b0c00210f98008040780020002000c8040700b6
:101b1c003e0090000000e800300798001e0fe9001e
:101b2c001e0078000000e000f1ff3d001e48900010
:101b3c000004e0000d0032000600370001c2b300c3
:101b4c0020002000ba0407003e0090000000e800ce
:101b5c00300798001e0090000000e9001007980064
:101b6c001e0090000000e000f4ff3d0000000000ab
:101b7c000afd37000600fa00404798008003210058
:101b8c00000f78001e0078000000e0000e0032000c
:101b9c001e007800904090004e40900080cf500086
:101bac000b00390068005700100798009e00900049
:101bbc004eb89700e6fc0700a1c0b300200020003f
:101bcc009b040700030037000000000001003700f1
:101bdc00000000000080fa00000006003e00fa0041
:101bec00881f780000047800321f9800431f98006b
:101bfc00511f9800641f98001a000900001feb0089
:101c0c006e03b1000080eb008080eb002007980091
:101c1c00310798000080eb008080eb0040079800b3
:101c2c0051079800de189000410f98005e19900043
:101c3c00020f98005e1890000000e9006007980001
:101c4c006e009000700798003e199000ce1990001d
:101c5c00220f9800330f98002e089000be089000b9
:101c6c000000780061006000004078000004e00093
:101c7c00040032005e1890007cfb070010079800ef
:101c8c0002003700ee1990001307980010c0b30043
:101c9c00004f78001a0009003e1c78006803b10060
:101cac006e03b100080078004f0478000080fa0041
:101cbc00000006000e00fa0010079800210798009b
:101ccc0032079800034f9800540798000040eb002f
:101cdc00004f78001e00900020099000b009900081
:101cec00004020000100200002027800030178006f
:101cfc00800178000100780003026200000061009e
:101d0c008000eb00c000dd00000020000001be00e0
:101d1c006120b8000001710081817100e00f510059
:101d2c00e08f590008003a001e0090001040780027
:101d3c000004a2000004e0000300320010c0b30055
:101d4c00004f78003b0037001e009000c008900048
:101d5c001e00900060089000808f5000030031003e
:101d6c0010c0b300004f7800320037001e00900006
:101d7c00ae009000510898001e0090003e019000ab
:101d8c00620898001e0090008e49900063589800dd
:101d9c001e009000de009000011098001e019000c3
:101dac000080eb008080eb0040019800510198000e
:101dbc001e0190000080eb008080eb002001980059
:101dcc00310198001e009000700090006007980090
:101ddc001e009000400990003e00900080017800a9
:101dec00050009000381d8008000fd006e01900001
:101dfc00800051001e009000610098001e009000b1
:101e0c00c00890001e009000600190001e00900021
:101e1c007000900000005100808040001e00900077
:101e2c00110898001e009000900890001e00900071
:101e3c00010898001e4078000080fa00000006009f
:101e4c000200fa00000f78001e007800b008900025
:101e5c0020089000000078006100600000407800cd
:101e6c000004e000040032001e0078001000900016
:101e7c0086fb0700030037001e0078008000eb0093
:101e8c00110098001e0078008040eb00014878009b
:101e9c0010c0b3000080fa00000006000c00fa002d
:101eac003007980041079800520798000040eb005b
:101ebc00004f78000000eb00100798000000eb00ca
:101ecc00200798003e009000800890004e00900083
:101edc00808f5000170031003e00900020099000c8
:101eec00b0099000200020000100200002027800c0
:101efc000301780080017800010078000302620081
:101f0c00000061008000eb00c000dd00000020003c
:101f1c000001be006120b8000001710081817100d8
:101f2c00e00f5100e08f590002003a0010c0b300de
:101f3c00004f78001e4078000004a2000004e0006e
:101f4c00660032003e009000d000900040009000ef
:101f5c00e00f5000e08f5800090035003e00900063
:101f6c00600190003e009000d00090004000900076
:101f7c0000007800000051001007980003003700a3
:101f8c003e00900090089000110798000000eb00b4
:101f9c00200798004d0037003e009000b0009000e4
:101fac0020009000e00f5000e08f580008003d002a
:101fbc003e009000b00090002000900061004000b6
:101fcc00e08048003e01900020019800310198000b
:101fdc00ae0090001e009000808f500005003a006b
:101fec003e0190006000b80040019800510198003b
:101ffc00080037003e009000d00090004000900098
:10200c0061004000e08048003e01900040019800d3
:10201c00510198003e009000100190003e0090008d
:10202c00d0009000400090000000780000004100bb
:10203c005e019000ae00900081004100914078005c
:10204c00014878003e009000000890000000e0007d
:10205c0016003a003e009000b00090002000900066
:10206c0061004000e08048003e0190002001980093
:10207c00310198003e00900020019000b0019000ca
:10208c003e009000600090008000eb00800f51003b
:10209c00818f59000a0034003e0190006000b800a6
:1020ac002001980031019800050037003e00900097
:1020bc00000890008000e9003e00900001089800a4
:1020cc002e0090000000e80020079800ae00900061
:1020dc004e009000808f5000afff39001e407800fa
:1020ec000080fa00000006000400fa0010079800b7
:1020fc001e009000101890000000e000020032005a
:10210c000040eb006b0037001e009000b000900008
:10211c0020009000800078001e0090004110980074
:10212c001e009000900890001e0090000008900087
:10213c00808050001e009000611098001e009000de
:10214c00600190001e009000b000900020009000f4
:10215c000000780000005100000fe8001e00900005
:10216c00601090009e0f50000a0036001e00900078
:10217c00600890009e0078000001780005000900be
:10218c008280d800800078001e00900051109800ca
:10219c00130037001e00900040019000d001900009
:1021ac001e009000b0009000200090000000510034
:1021bc008180590061024000e08248001e009000be
:1021cc00600890008000eb000001be000400be001f
:1021dc0004fa0700800078001e009000511098004f
:1021ec001e009000350007001e009000e0109000cb
:1021fc001e009000500890000001780005000900b6
:10220c008280d800800078001e0090007110980029
:10221c001e009000605890000004e0001e00320088
:10222c001e009000d01090001e009000605890008e
:10223c000080fb00808040001e0090005110980030
:10224c001e009000e01090001e009000605890005e
:10225c000081fb001e009000600890008090b90087
:10226c00808040001e009000611098001e009000bd
:10227c00301190001e00900000109000800078003b
:10228c001e009000020001001e00900011002000b2
:10229c0011189800030037001e0090002100200048
:1022ac00111898001e0090008000eb002118980077
:1022bc0010c0b3000080fa00000006000a00fa000b
:1022cc00300798003e009000700190003e00900096
:1022dc00d00090004000900000007800000f5100ea
:1022ec003e009000600090008000eb00100798000a
:1022fc00210798003e009000600890009e0f50004f
:10230c00150036003e0190000080eb008080eb0051
:10231c0040019800510198003e0090007000900020
:10232c00400798003e009000400990003e0090004d
:10233c006008900080017800050009000381d80036
:10234c008000fd004e019000800051003e00900086
:10235c00610098000e0037003e0090007000900065
:10236c00400798003e009000600890001e01780025
:10237c0080017800050009000381d8008000fd0071
:10238c004e019000800051003e00900061009800ca
:10239c003e009000600090006101b8001e009000ab
:1023ac00ae00900000005100818059001007980089
:1023bc00210798003e009000900890001e009000ad
:1023cc00808040003e009000110898003e00900074
:1023dc00800890001e009000808040003e0090001d
:1023ec00010898000080fa00000006000200fa00c4
:1023fc00000f78001e007800e01090001e0078009e
:10240c006008900000017800050009008280d80067
:10241c00800078001e007800511098000080fa00af
:10242c00000006000200fa00000f78001e00780081
:10243c00101890000000e0009b0032001e00780095
:10244c0010189000e20f50001e003200e30f5000f5
:10245c0059003200e10f500098003a001e0078003d
:10246c00201890000000e0000e003a001e007800da
:10247c00901190001e007800601190001e007800f2
:10248c00605890008080fb001e00780000109000c7
:10249c00030001001e007800110020002118980094
:1024ac00860037001e00780020189000e20f5000c4
:1024bc007f003a001e0078002100200011189800bf
:1024cc007e0037001e007800501090000000e000e5
:1024dc000f0032001e007800901190001e00780052
:1024ec00601190001e007800d01090001e00780043
:1024fc00100290001e007800401090000000420076
:10250c00030001009e007800801898006b003700d3
:10251c001e007800601090000000e0000a003a00f5
:10252c001e0078008000eb00111898001e00780047
:10253c0020109000000001001e0078008000eb00cd
:10254c00211898005d0037001e007800e010900004
:10255c001e00780060089000808f50000f00310042
:10256c001e007800901190001e007800e010900082
:10257c001e007800100190001e00780040109000a2
:10258c0000004100010178008000eb000300010015
:10259c009e00780080189800480037001e007800d4
:1025ac0031002000111898001e0078008000eb000c
:1025bc0041109800410037001e0078005010900028
:1025cc000000e00002003a001e00780087ff0700c0
:1025dc001e007800501090000000e0000f00320048
:1025ec001e007800901190001e0078006011900081
:1025fc001e007800d01090001e0078001002900091
:10260c001e00780040109000000042000300010002
:10261c009e00780080189800280037001e00780073
:10262c00601090000000e0000a003a001e007800e4
:10263c008000eb00111898001e007800201090000c
:10264c00000001001e0078008000eb0021189800ab
:10265c001a0037001e007800e01090001e00780071
:10266c0060089000808f5000130031001e0078002d
:10267c00901190001e007800e01090001e00780071
:10268c00100190001e0078004010900000004100e6
:10269c00010178008000eb00030001009e0078002f
:1026ac008018980005003700000000000300370078
:1026bc000000000001003700000000000080fa005c
:1026cc00000006000600fa00000f780011079800c1
:1026dc001e00780020189000e10f500030003a00e6
:1026ec001e009000e20f50002e003a001e007800f1
:1026fc00e01090001e0078000018900080805000c0
:10270c001e007800611098001e0078005010900098
:10271c00200798001e007800001990001e00780019
:10272c006008900080017800050009000381d80042
:10273c002e019000800051001e007800511098006e
:10274c001e007800c01090001e0078000018900049
:10275c00808040001e007800411098001e00780018
:10276c00401090008000eb001e01780020019800c2
:10277c00310198001e007800800890001e0078003f
:10278c0000189000808040001e007800010898001e
:10279c001e0078009e01900023189800010037005d
:1027ac00000000000080fa00000006000600fa009d
:1027bc0010079800210798000040eb00004f7800ac
:1027cc000d0037002e009000e10f50000300320086
:1027dc001e00900010407800010037000040eb0014
:1027ec009e40780001406800004f78001e00900069
:1027fc000000e800100798002e00900000f0a700e1
:10280c000000ea000000ea004f00de000040780003
:10281c00ae0090008100e900210798000004e00060
:10282c00e8ff3a001e4078000080fa000000060025
:10283c000600fa0010079800414798000040eb0092
:10284c00004f78001e009000100078000000e0009f
:10285c0007003a004e409000e24f500004003a004e
:10286c001e00900011002000010878001b003700aa
:10287c001e00900010007800e10f500017003a0085
:10288c004e409000e34f500003003a0010c0b300dc
:10289c00004f7800110037004e409000f14f50006f
:1028ac0004003a001e00900011c0b3002170980083
:1028bc00330037001e009000207090000004e000f0
:1028cc00060032004e40900000c0e90040479800de
:1028dc001e0090008040eb00217098001e009000bc
:1028ec0010007800e10f500019003a001e00900013
:1028fc0080189000d0022000808f500014003e0001
:10290c001e009000001890009e0090000080400077
:10291c000080e800ce409000014878001e4078000e
:10292c000004e000040032001e0090004100200072
:10293c0001087800120037001e009000001890006b
:10294c008000e8001e009000011898000c00370071
:10295c001e00900080189000d0022000808f500044
:10296c00070036001e009000901890000190a00007
:10297c00111898001e0090005100200001087800ea
:10298c000080fa00000006000400fa00000f780036
:10299c00110798001e007800801890001e80e80037
:1029ac0082ff07009e007800811890008180e9006a
:1029bc001e0178008180e800810041009140780080
:1029cc00814f5000090032001e00780090189000d2
:1029dc0001a0a000111898001e00780051002000e2
:1029ec00010878000040eb00120037001e0178004f
:1029fc00e50041001e009000210098001e007800a8
:102a0c0000189000e50050001e0090001100980086
:102a1c001e007800b04090001e0090000148780025
:102a2c001e007800c04090001e00900011409800dd
:102a3c0010c0b3000080fa00000006000a00fa0083
:102a4c0040079800e2004700020009008018eb00e4
:102a5c000040eb00004f78004e0090001000780012
:102a6c00e10f500020003200e10f5000200039002f
:102a7c00e20f500020003200e40f50001f003a001b
:102a8c000e80e800800078004e009000beff07002a
:102a9c000004e0000b0032001e009000ae0090001d
:102aac003e019000190107000004e0000200320012
:102abc0060c0b3000100370050c1b300004f780074
:102acc000200370050c1b300004f78009e407800e0
:102adc000000eb00d60007004e0090008000eb00d9
:102aec0001087800050037000000000003003700e3
:102afc000000000001003700000000000080fa0018
:102b0c00000006000000fa00007c80000080fa0043
:102b1c00000006000200fa00faff0700000f780020
:102b2c001e007800240007000004e00002003200c0
:102b3c0000002800710007001e0078002a00070022
:102b4c000004e00002003200000024006b000700cb
:102b5c001e007800320007000004e0000200320082
:102b6c0000202000650007001e0078003a000700d6
:102b7c000004e00002003200000820005f000700a3
:102b8c001e007800420007000004e0000200320042
:102b9c0000042000590007001e0078004a000700be
:102bac000004e00002003200000120005300070086
:102bbc000080fa00000006000400fa0010079800dc
:102bcc000040eb00004f78001e0090000000e00079
:102bdc0002003d0010c0b300004f78001e4078008a
:102bec000080fa00000006000400fa0010079800ac
:102bfc000040eb00004f78009e0090000000240085
:102c0c00008060000000e0000200320010c0b30041
:102c1c00004f78001e4078000080fa00000006008b
:102c2c000400fa00100798000040eb00004f7800f9
:102c3c009e00900000202000008060000000e0005a
:102c4c000200320010c0b300004f78001e40780024
:102c5c000080fa00000006000400fa00100798003b
:102c6c000040eb00004f78009e0090000008200010
:102c7c00008060000000e0000200320010c0b300d1
:102c8c00004f78001e4078000080fa00000006001b
:102c9c000400fa00100798000040eb00004f780089
:102cac009e00900000042000008060000000e00006
:102cbc000200320010c0b300004f78001e407800b4
:102ccc000080fa00000006000400fa0010079800cb
:102cdc000040eb00004f78001e0090007000600078
:102cec000000e0000200320010c0b300004f78007a
:102cfc001e4078000080fa00000006000200fa0076
:102d0c00000f78009e80ea00007c8000008060004c
:102d1c00007c88000080fa00000006000000fa0029
:102d2c00802fef000080fa00000006000000fa007f
:102d3c0010002300307c8800400b2000407c880071
:102d4c008c2fef0010042000507c88001010200005
:102d5c00707c880060092000807c880010042000b2
:102d6c00907c88009a2fef00b82fef00ba2fef005d
:102d7c00be2fef00002def00a42fef00a62fef00c9
:102d8c00a82fef00aa2fef00ae2fef00b02fef000f
:102d9c00b22fef003200200080072000a109200094
:102dac0053f82000804978008149780082497800e6
:102dbc0012002000600420007105200043f8200060
:102dcc008049780081497800824978000000000031
:102ddc00207c8000610060000000e000fcff3a00f5
:102dec0000000000217c80000002200000806000b8
:102dfc000000e000fbff32000080fa00000006003b
:102e0c000000fa00707c8000ee800a0000000000d8
:102e1c000080fb0000f0a7000000ea000000ea00c0
:102e2c004f00de00004078000080fa000000060031
:102e3c000800fa0020079800614798002000210044
:102e4c00000f78001e007800407890000004a2006b
:102e5c000004e000020032000040eb0020003700cc
:102e6c001e00780010007800e10f500007003a00b7
:102e7c001e007800900078002e009000808f50008b
:102e8c000200320010002000010037000000eb00af
:102e9c00204798002e4090000004e000080032000b
:102eac001e007800f018900010c1b3000100010062
:102ebc001e007800f018900030c0b3000100010033
:102ecc001e007800f01890006e4090000100010088
:102edc001e007800ae0090000108780010c0b3000e
:102eec000080fa00000006000400fa002047980059
:102efc0040002100000f7800ae4090001e007800ca
:102f0c004bfe07000080fa00000006000600fa00e5
:102f1c00000f780011079800220798000040eb0082
:102f2c000080fa00000006000000fa00062eef00f8
:102f3c00222eef003e2eef005a2eef00762eef00e1
:102f4c00f001200010708800d0ff2f00f070880076
:102f5c00f07f2f00d07188000080eb00b0728800e9
:102f6c000080eb00907388000c2eef00282eef00f1
:102f7c00442eef00602eef007c2eef000a2eef00a7
:102f8c00262eef00422eef005e2eef007a2eef0081
:102f9c00082eef00242eef00402eef005c2eef00e9
:102fac00782eef00f001200000708800c00820008f
:102fbc00e0708800f0082000c071880000402000fc
:102fcc00a07288000000eb0051052000b14688007b
:102fdc00a10a2000b146880000688800a0c3b30095
:102fec0028edb700d16c8000f00f2c000080600041
:102ffc000080a000d06c88000080200051052000cb
:10300c00b1468800a10a2000b146880000688800fb
:10301c000080fa00000006000000fa002188a900d8
:10302c002168a90000082000c01188000040200081
:10303c00d01188003c22ef0020022000f011880003
:10304c0060182000001288004222ef004c22ef0092
:10305c004e22ef005022ef005222ef005422ef00dc
:10306c005622ef005822ef005a22ef005c22ef00ac
:10307c002168a80039e2a80038a2a8003882a8006c
:10308c000080fa00000006000200fa00004f7800f1
:10309c0000000000f11180000002200000806000a0
:1030ac000000e000fbff32001e417800812420006c
:1030bc00824878000080fa00000006000200fa0046
:1030cc00000f780021028000200f2000008060009b
:1030dc001e007000200288000080fa00000006002c
:1030ec000000fa00c3e8a800000000000000000087
:1030fc000080fa00000006000000fa008aff0700ba
:10310c000aff070006000700c3ff0700f4ff0700d3
:10311c0000022000e9ff07000080fa000000060012
:10312c000000fa00f1448000f0f82f0000806000ed
:10313c000040a000f04488003142800080ff2f0046
:10314c00008060000000a00030428800c142800076
:10315c00f0f82f00008060000040a000c042880002
:10316c0021428000f0ff28000080600000c0a00019
:0c317c00204288000080fa0000000600dd
:020000040000fa
:103188004210000020000000800000000010000035
:103198000200000082000000ffff00000210000093
:1031a80040000000800000006210000010000000d5
:1031b8008000000072100000020000008000000083
:0431c8000000000003
:020000040000fa
:1031cc000000fa00ccff0700a084210000828800d8
:1031dc00e003210011c0b300014878000000eb00af
:1031ec00801f780080752800801f78000040eb005d
:1031fc0060fa0700e4875700ffff37000200fa006f
:10320c00000f78009e00780001808800ffff3700d7
:10321c000000fa002004210080077800a00521009e
:0c322c00000188000080fa00000006008d
:020000040000fa
:04323800ffffff0095
:020000040000fa
:02000004000af0
:04fe0000ffffff0001
:020000040000fa
:02000004000af0
:04fe2000ffffff00e1
:020000040000fa
:02000004000af0
:04fe300078ffff0058
:020000040000fa
:02000004000af0
:04fe380079ffff004f
:020000040000fa
:02000004000af0
:04fe40007453ff00f8
:020000040000fa
:02000004000af0
:04fe5000deffff00d2
:020000040000fa
:02000004000af0
:04fe58000000ff00a7
:020000040000fa
:02000004000af0
:04fe60000000ff009f
:020000040000fa
:02000004000af0
:04fe68000000ff0097
:020000040000fa
:02000004000af0
:04fe70000000ff008f
:020000040000fa
:02000004000af0
:04fe7800ffffff0089
:020000040000fa
:02000004000af0
:04fe8000fffcff0084
:020000040000fa
:02000004000af0
:04fe8800ffffff0079
:020000040000fa
:02000004000af0
:04feb000ffffff0051
:020000040000fa
:02000004000af0
:04fec000ffffff0041
:020000040000fa
:02000004000af0
:04fed000ffffff0031
:020000040000fa
:02000004000af0
:04fee000ffffff0021
:020000040000fa
:02000004000af0
:04fef000ffffff0011
:00000001FF
