:020000040000fa
:080000000002040000000000f2
:020000040000fa
:040008008803000069
:020000040000fa
:04000c008803000065
:020000040000fa
:040010008803000061
:020000040000fa
:04001400880300005d
:020000040000fa
:040018008803000059
:020000040000fa
:04001c008803000055
:020000040000fa
:040020008803000051
:020000040000fa
:04002400880300004d
:020000040000fa
:040028008803000049
:020000040000fa
:04002c0024030000a9
:020000040000fa
:040030008803000041
:020000040000fa
:04003400880300003d
:020000040000fa
:040038008803000039
:020000040000fa
:04003c008803000035
:020000040000fa
:040040008803000031
:020000040000fa
:04004400880300002d
:020000040000fa
:040048008803000029
:020000040000fa
:04004c008803000025
:020000040000fa
:040050008803000021
:020000040000fa
:04005400880300001d
:020000040000fa
:040058008803000019
:020000040000fa
:04005c008803000015
:020000040000fa
:040060008803000011
:020000040000fa
:04006400880300000d
:020000040000fa
:040068008803000009
:020000040000fa
:04006c008803000005
:020000040000fa
:040070008803000001
:020000040000fa
:0400740088030000fd
:020000040000fa
:0400780088030000f9
:020000040000fa
:04007c0088030000f5
:020000040000fa
:0400800088030000f1
:020000040000fa
:0400840088030000ed
:020000040000fa
:0400880088030000e9
:020000040000fa
:04008c0088030000e5
:020000040000fa
:0400900088030000e1
:020000040000fa
:0400940088030000dd
:020000040000fa
:0400980088030000d9
:020000040000fa
:04009c0088030000d5
:020000040000fa
:0400a00088030000d1
:020000040000fa
:0400a40088030000cd
:020000040000fa
:0400a80088030000c9
:020000040000fa
:0400ac0088030000c5
:020000040000fa
:0400b00088030000c1
:020000040000fa
:0400b40088030000bd
:020000040000fa
:0400b80088030000b9
:020000040000fa
:0400bc0088030000b5
:020000040000fa
:0400c00088030000b1
:020000040000fa
:0400c40088030000ad
:020000040000fa
:0400c80088030000a9
:020000040000fa
:0400cc0088030000a5
:020000040000fa
:0400d00088030000a1
:020000040000fa
:0400d400880300009d
:020000040000fa
:0400d8008803000099
:020000040000fa
:0400dc008803000095
:020000040000fa
:0400e0008803000091
:020000040000fa
:0400e400880300008d
:020000040000fa
:0400e8008803000089
:020000040000fa
:0400ec008803000085
:020000040000fa
:0400f0008803000081
:020000040000fa
:0400f400880300007d
:020000040000fa
:0400f8008803000079
:020000040000fa
:0400fc008803000075
:020000040000fa
:040100008803000070
:020000040000fa
:04010400880300006c
:020000040000fa
:040108008803000068
:020000040000fa
:04010c008803000064
:020000040000fa
:040110008803000060
:020000040000fa
:04011400880300005c
:020000040000fa
:040118008803000058
:020000040000fa
:04011c008803000054
:020000040000fa
:040120008803000050
:020000040000fa
:04012400880300004c
:020000040000fa
:040128008803000048
:020000040000fa
:04012c008803000044
:020000040000fa
:040130008803000040
:020000040000fa
:04013400880300003c
:020000040000fa
:040138008803000038
:020000040000fa
:04013c008803000034
:020000040000fa
:040140008803000030
:020000040000fa
:04014400880300002c
:020000040000fa
:040148008803000028
:020000040000fa
:04014c008803000024
:020000040000fa
:040150008803000020
:020000040000fa
:04015400880300001c
:020000040000fa
:040158008803000018
:020000040000fa
:04015c008803000014
:020000040000fa
:040160008803000010
:020000040000fa
:04016400880300000c
:020000040000fa
:040168008803000008
:020000040000fa
:04016c008803000004
:020000040000fa
:040170008803000000
:020000040000fa
:0401740088030000fc
:020000040000fa
:0401780088030000f8
:020000040000fa
:04017c0088030000f4
:020000040000fa
:0401800088030000f0
:020000040000fa
:0401840088030000ec
:020000040000fa
:0401880088030000e8
:020000040000fa
:04018c0088030000e4
:020000040000fa
:0401900088030000e0
:020000040000fa
:0401940088030000dc
:020000040000fa
:04019800540d000002
:020000040000fa
:04019c0088030000d4
:020000040000fa
:0401a00088030000d0
:020000040000fa
:0401a40088030000cc
:020000040000fa
:0401a80088030000c8
:020000040000fa
:0401ac0088030000c4
:020000040000fa
:0401b00088030000c0
:020000040000fa
:0401b40088030000bc
:020000040000fa
:0401b80088030000b8
:020000040000fa
:0401bc0088030000b4
:020000040000fa
:0401c00088030000b0
:020000040000fa
:0401c40088030000ac
:020000040000fa
:0401c80088030000a8
:020000040000fa
:0401cc0088030000a4
:020000040000fa
:0401d00088030000a0
:020000040000fa
:0401d400880300009c
:020000040000fa
:0401d8008803000098
:020000040000fa
:0401dc008803000094
:020000040000fa
:0401e0008803000090
:020000040000fa
:0401e400880300008c
:020000040000fa
:0401e8008803000088
:020000040000fa
:0401ec008803000084
:020000040000fa
:0401f0008803000080
:020000040000fa
:0401f400880300007c
:020000040000fa
:0401f8008803000078
:020000040000fa
:0401fc008803000074
:020000040000fa
:04020000880300006f
:020000040000fa
:04020400880300006b
:020000040000fa
:040208008803000067
:020000040000fa
:04020c008803000063
:020000040000fa
:04021000880300005f
:020000040000fa
:04021400880300005b
:020000040000fa
:040218008803000057
:020000040000fa
:04021c008803000053
:020000040000fa
:04022000880300004f
:020000040000fa
:04022400880300004b
:020000040000fa
:040228008803000047
:020000040000fa
:04022c008803000043
:020000040000fa
:04023000880300003f
:020000040000fa
:04023400880300003b
:020000040000fa
:0402380002030000bd
:020000040000fa
:04023c008803000033
:020000040000fa
:04024000880300002f
:020000040000fa
:04024400880300002b
:020000040000fa
:040248008803000027
:020000040000fa
:04024c008803000023
:020000040000fa
:04025000880300001f
:020000040000fa
:04025400880300001b
:020000040000fa
:040258008803000017
:020000040000fa
:04025c008803000013
:020000040000fa
:04026000880300000f
:020000040000fa
:04026400880300000b
:020000040000fa
:040268008803000007
:020000040000fa
:04026c008803000003
:020000040000fa
:0402700088030000ff
:020000040000fa
:0402740088030000fb
:020000040000fa
:0402780088030000f7
:020000040000fa
:04027c0088030000f3
:020000040000fa
:0402800088030000ef
:020000040000fa
:0402840088030000eb
:020000040000fa
:0402880088030000e7
:020000040000fa
:04028c0088030000e3
:020000040000fa
:0402900088030000df
:020000040000fa
:0402940088030000db
:020000040000fa
:0402980088030000d7
:020000040000fa
:04029c0088030000d3
:020000040000fa
:0402a00088030000cf
:020000040000fa
:0402a40088030000cb
:020000040000fa
:0402a80088030000c7
:020000040000fa
:0402ac0088030000c3
:020000040000fa
:0402b00088030000bf
:020000040000fa
:0402b40088030000bb
:020000040000fa
:0402b80088030000b7
:020000040000fa
:0402bc0088030000b3
:020000040000fa
:0402c00088030000af
:020000040000fa
:0402c40088030000ab
:020000040000fa
:0402c80088030000a7
:020000040000fa
:0402cc0088030000a3
:020000040000fa
:0402d000880300009f
:020000040000fa
:0402d400880300009b
:020000040000fa
:0402d8008803000097
:020000040000fa
:0402dc008803000093
:020000040000fa
:0402e000880300008f
:020000040000fa
:0402e400880300008b
:020000040000fa
:0402e8008803000087
:020000040000fa
:0402ec008803000083
:020000040000fa
:0402f000880300007f
:020000040000fa
:0402f400880300007b
:020000040000fa
:0402f8008803000077
:020000040000fa
:0402fc008803000073
:020000040000fa
:04030000880300006e
:020000040000fa
:04030400880300006a
:020000040000fa
:040308008803000066
:020000040000fa
:04030c008803000062
:020000040000fa
:04031000880300005e
:020000040000fa
:04031400880300005a
:020000040000fa
:040318008803000056
:020000040000fa
:04031c008803000052
:020000040000fa
:100400008f0023000eff24000e0188000000000072
:10041000000020000000e000020032000001200087
:100420002002880014000700bb0007000000e00065
:1004300003003a00a0ce2000010020000200370097
:100440000000200001002000810f70000100320038
:100450000f000700000020000000e0000200320052
:100460000000020000000000720c0200000000000a
:100470000040da000000fe00200020000000e00044
:1004800002003200100020009001880000000600e9
:10049000a1028800800478000000eb001f003700f4
:1004a000e284440054a0b4009905ba00e2844400f8
:1004b00054a0b4009906ba00e284440054a0b400e9
:1004c0000006eb00476fde00fd07b200ae018800ba
:1004d000636ce10003003a000ad801000000eb0061
:1004e0000e003700606ce10008003a00004deb00a0
:1004f0000a05e800020039003420ec000af0a000f0
:100500008b05e900f9ff3e00040037006168e10057
:10051000010032000086eb000b00070019c7ba008b
:100520001905ba000e04e00003003a000a00e000da
:10053000dbff3a0000000600fe07b200ae028800b2
:100540008a047800f5ff37000cd0a300e20f4d00bd
:100550001c00390089027800354dba000a05e80010
:10056000020039003420ec000af0a0008b05e900fd
:100570000f003200254dba000a05e80002003900dc
:100580003420ec000af0a0008b05e90008003200de
:100590000c00e0000600320015cdba000a05e800a4
:1005a000020039003420ec000af0a0008b05e900bd
:1005b0008984e80054a0b4000b00e000e2ff3a0098
:1005c000000006009902ba00055d78008b05e9007d
:1005d000f7ff3200c82ade00055d78008b05e900d0
:1005e000f3ff32000c00e000f1ff320019ddba0029
:1005f000eeff3700000000000000000000000000d7
:10060000000000003600f800809fbe00829fbe0000
:10061000849fbe00869fbe00de01e2000200320021
:100620009704070001003700a80407001088a900fc
:100630004f03be004f02be004f01be004f00be0080
:100640003600f900004006003600f800809fbe002a
:10065000829fbe00849fbe00869fbe00889fbe0012
:100660008a9fbe008c9fbe003200f8003400f80064
:1006700010002000a00188001000200000d0fe0023
:1006800008022100e60444004a062000080545004f
:100690006066b8001800e0000d0032001400200071
:1006a0000500200039004200a9804a00808cbe006d
:1006b00018029000a8029000840f5000858f580007
:1006c00003003a0018007800000001008c8cbe0086
:1006d0006a044400ea8444008a0f5400edff3a00a3
:1006e0000028a9003400f9003200f9004f06be00ce
:1006f0004f05be004f04be004f03be004f02be00b8
:100700004f01be004f00be003600f9000040060059
:100710000040da000000fe0000000500889fbe00d7
:100720008a9fbe008c1f7800980007009f0033004e
:1007300003866c006450e1002e0032006420e1006a
:10074000330032006150e1002f0032006120e100ef
:100750003100320085855500eb07b000090020000c
:1007600008042000050037000804440089844c0078
:100770000a0031000603430087834b000001530049
:1007800081815b00f8ff33000203be000800a00077
:100790000804440089844c00f6ff3900c639dd00a6
:1007a0008301730001003200130020008904d1008e
:1007b0000884d3000998a300050032000800a700b0
:1007c0000300a0008904d1000884d3008b05e80051
:1007d0008904d1000884d3000001eb000281d2001b
:1007e0002f00070001f0a1000cf0a70001f0a0000d
:1007f000770037006420e100790032000801be0074
:100800000200be00f7ff37006120e10074003200f3
:100810006000b800f3ff37000000200001f8270057
:10082000f0ff370014002000b40037000001be00c4
:10083000410007000470a70003f0a10003f8a30023
:1008400013003a006509b1001000320009003500bc
:100850006928e100020035000100280000000500c1
:1008600000004000818048008502e900fcff3a005a
:1008700000000600f88f4200050035008100d1001d
:100880000080d3008502e800fcff3a00000006006b
:100890008000eb00000005006011b800b2003700d6
:1008a00081002000618055000b003d000b002000fe
:1008b00061fe2f000100e1001d0034008281710003
:1008c000610164008904d1000884d3000000e800bd
:1008d000faff3a007100200061006400030070001c
:1008e000020060000900320061044400e0844c0012
:1008f0000988a500050032008b05e8006808e100c2
:1009000002003a008904d1000884d300f20f2000cd
:100910000258e10005003d00c75ddd00f907b200a7
:100920008980750008007800000006000bf8270099
:100930008b00780000000500c70ade00f107b20056
:10094000f50fb20008003200e1cf42000200320091
:100950000170a00024000500810f7000010032002a
:100960000408050044000500810f700002003a00f1
:10097000140005008502e9000000400081c0480025
:10098000fcff3b000170a000240005000004be0035
:10099000e9ff07000003be000405be000200be0020
:1009a000e5ff0700844f7500000006000200be004e
:1009b0006450e100050036006420e10002003600ca
:1009c0000968a30001003a000800be000160a00011
:1009d0004f0678004f05be004f04be000000060021
:1009e000f0ff2f00f1ff2700f9ff3700889fbe00be
:1009f0008a9fbe008c1f7800e4ff0700ebff3300e6
:100a000003866c006450e100240032006420e100a1
:100a1000270032006150e100220032006120e10035
:100a2000210032008b854200eb07b1000134b80091
:100a3000003ab8000804420089844a00013ab8002c
:100a40000030b8008880400009014a0004003300eb
:100a50000000400081804800020149008b05e90048
:100a6000c909dd008301700001003200130020007d
:100a7000c814de004814dd004709de001200b20091
:100a8000c808de000884700085ff070001f0a1009f
:100a90000cf0a70001f0a000cdff37006120e100bd
:100aa000cfff32000801be000200be00f7ff370092
:100ab0006150e100fcff3a00c9ff37006022b80036
:100ac000060220000000d0008180d2000482d20003
:100ad0008582d2000000a0000202520083825a00e8
:100ae000030031000202420083824a000000a1009c
:100af0000603e900f3ff3a0000000600889fbe00ed
:100b00008a9fbe00841f7800a0ff07004f00780076
:100b100011003300f0ff2f00838f6c0006003b00b4
:100b2000040565000a00a7000800370009f0a600c8
:100b30001000200008003700820f5400838f5c00f3
:100b4000030039001000200001003e0000002000da
:100b500009f0a7000000ea004f05be004f04be00e8
:100b60000000e00000000600889fbe008a9fbe00d3
:100b700000827000040271000482710026003200bd
:100b80000004be000200be006011b8006b09200026
:100b9000950220000182cf000a0039000541b10012
:100ba0000082cf00070039000541b1000982cf0063
:100bb000040039000541b1000882cf00010039006e
:100bc0000541b10005425200120032000a003b000c
:100bd00082817100610164008100d1000080d30036
:100be0008984d3000884d3008b05e8000442e80020
:100bf000f7ff3a00070037000804440089844c00de
:100c000000004800818048008b05e9000442e900ab
:100c1000f9ff3a0022ff07004f05be004f04be0057
:040c200000000600ca
:020000040000fa
:100c240000014000c1c020000101410001e02f008b
:100c340043588000838060008080700041588800a1
:100c4400090ba800ef0f500006003e001100200021
:100c54008008dd008359800001806100fdff3200bf
:100c64000600370070005000110020008008dd00ed
:100c74009359800001806100fdff3200120078006a
:100c840000000600889fbe008a9fbe008c1f78006b
:100c940000067800810478000000eb000900e00001
:100ca4000e003200000478006055b8000c00780093
:100cb400dbff07000a054000e0854d000804e8005a
:100cc400888f5400f9ff3e000900d1000a0040005b
:100cd400e0804d006149b80077ff07004f067800b7
:100ce4004f05be004f04be0000000600e10f500097
:100cf40003003200ef0f50000d003a0009003700e6
:100d0400382ea800e3806000c208dd0030ff2f0009
:100d14000e0bb600008070007058880010c0b3003d
:100d240004003700002ea80010c0b30001003700f3
:100d34000040eb00000006000042eb000000e00071
:100d440026003a00002bef0000062000105888000f
:100d5400042bef002000200030588800082bef00ff
:100d6400000024005058880000f020001060880023
:100d740001eba8000104e000060032000a0ba80001
:100d8400000ca800011020000460800004806000b2
:100d9400fdff32000204e000060032000a2ba80026
:100da400002ca80001202000026080000280600066
:100db400fdff320014c0b3000304e000070032005a
:100dc4000aeba80000eca8000100280004608000e1
:100dd40004806000fdff320014c0b30004407800ba
:100de4000000060080017800e48f51000600360000
:100df400e5805100120020008110dd000100780020
:100e04002c28b70005003700eb80410012002000b9
:100e14008110dd00010078002a28b700ef8f51000f
:100e240004003e00110020000308dd00202bb70061
:100e34000400370070805100110020000008dd001c
:100e4400222bb70000000600000278000400a10075
:100e540003b82000830142008002e900140020004e
:100e6400e38f520011003600e502500024002000f8
:100e7400e38f52000d003600e902500034002000d8
:100e8400848f520009003600ed0250004400200017
:100e9400e38f520005003600f10250005400200098
:100ea400e38f5200010036000002eb00e302600011
:100eb4000003eb0087ff2f00e18f52001000320087
:100ec40046002000f7f82f00e28f52000c00320099
:100ed400e38f5200050032000003eb0087ff2f0070
:100ee4000500e00006003a000300370086002000f9
:100ef400f78f2f0002003700c6002000f7ff2800fc
:100f040004024200c586200005024200148a6300e0
:100f14008180fb00060bdd00140a73000008a300a7
:100f240005003200f00f2000930960004811dd0035
:100f3400930971000400370000f02f00930960004a
:100f44000281fb00930971000000060000002300e9
:100f54008000eb000108780011009800210098003f
:100f640031009800f0ff2700b0808800c07c20008a
:100f7400c0808800d07c2800d0808800f035220012
:100f8400e0808800a02d2f00f0808800b8020700c0
:100f940000000600881f780013c0b30003417800e6
:100fa4008000eb00034078008200070073c0b300a8
:100fb40012c0b3008340780002407800a500070007
:100fc4000040eb00801f7800801f7800006a280032
:100fd40011002000809fbe00962e2a00b7e82b0047
:100fe4008000eb0034332300350524000250260032
:100ff400d3dc210010c0b300a6000700e84620009f
:101004008002eb00050278008501780082992700b0
:101014008138210008007800ea00070035c0b300d9
:10102400c4c1b3008041eb0022c0b30011c0b300bf
:10103400080078001e0107008042eb00054278009a
:101044008541780012c0b300210320000800780015
:101054002d01070043012000c2252100419c2000ee
:1010640008007800f70007000042eb008441780094
:1010740012c0b3008440780008007800f50007002f
:101084008041eb0012c0b300834078000800780070
:10109400fb0007000042eb00844178000441780023
:1010a400a1c1b30008007800d800070088432000dd
:1010b4008002eb0005027800850178008299270000
:1010c4008138210008007800be0007008001eb0091
:1010d400030178004101200008007800d9000700ce
:1010e4000042eb008441780012c0b30084407800d1
:1010f40008007800d70007000042eb008441780024
:1011040004417800a1c1b30008007800bf000700c3
:1011140013c0b300034178008040eb000000eb00f3
:1011240005ff070011c0b30010002000effe070008
:101134008040eb00f0002000ecfe0700d2c0b300ba
:1011440061c0b300100020003fff0700d2c0b3000d
:1011540041c0b300f00020003bff07007bff070005
:1011640010c0b3000af0b700100020001dff0700f4
:10117400e88757004f047800000006000a50e20098
:101184000b00320060808000318c2000810f500001
:1011940003003e006a0040006080880004003700bd
:1011a4000a70ef000e70ef00408c20006080880011
:1011b4000000060084c82000e14f500004003600ff
:1011c4000080fb000000e900ee00b90000024200cc
:1011d4000204e000030032000008200000648800dc
:1011e40002003700000c20000064880031029800df
:1011f4000304e000010032001490a0000000eb00a2
:101204002002980014f0a00081eca8000000060061
:1012140082c82000e14f5000040036000080fb002b
:101224000000e900ee00b90000014100f0ff2000d9
:10123400808f500004003e000100e00003003d00e8
:101244008000eb0001003700f1ff2000310198001d
:101254000000060084c82000e14f5000040036005e
:101264000080fb000000e900ee00b900000242002b
:101274004411dd00020fb2006f8060008200700034
:101284006f8061004800dd00810070004102980019
:1012940000000600e4874700889fbe008a9fbe00c6
:1012a4008c9fbe008e1f78000206be000405be009f
:1012b40081bf9f000604be008ec82000e14f50008d
:1012c400040036000080fb000000e900ee00b900d5
:1012d400000747002fe097000080fb004300dd007b
:1012e4000120220000807000000f7800cfe09700fa
:1012f4000104e000020032000060a000000f78004a
:101304006011b8000800be0045fd07000000e000c1
:1013140007003d000000eb005007980009f0a20010
:10132400200798000fb89700300798000600370090
:1013340000202000500798000fb89700200798005d
:10134400f0ff20003007980002002000031824005a
:101354000800be00a4fd07000004be008d00d100fb
:101364000c80d3004bfd0700024022004397240069
:10137400e9fc07000a01be009bfd070002002000f3
:101384000398230098fd07000001be000800be007a
:10139400e1fc070024fd0700600798001ef0a00090
:1013a4005e00900000f0a000500798004f077800fe
:1013b4004f06be004f05be004f04be004f00b100f3
:1013c40000000600881f78003600200006188800f8
:1013d40086002000060878000003eb001600980041
:1013e400131098000289b800411cdd004f13de0081
:1013f40006037400261098004110980014189800f1
:10140400051898004f047800000006004e11dd0016
:10141400b0029000028172000482fb004422dd00cd
:101424008381fb00c219dd00048271000201720095
:10143400320098008180fb004100980010f0a00069
:101444000000060051109800621098007310980074
:10145400000006004811dd00cb08dd00828070002a
:10146400c919dd00818071004a22dd00810072000b
:101474005001900082807000510098000000060026
:101484000281fb004611dd008180fb00c508dd0000
:10149400828070008381fb00c719dd0081807100a8
:1014a40060019000828070006100980000000600d6
:1014b400100b900006c0a0004811dd00cb08dd0031
:1014c400828070008381fb00c519dd00818071007a
:1014d4000482fb00810072000683700016089800e5
:1014e400c82add00a00890008182720025089800b7
:1014f4000000060021109800a00090000130a00018
:101504002100980000000600710898008381fb0008
:10151400c219dd000281fb004311dd0003017100eb
:101524000482fb0004024200020172008582fb0077
:101534000281720080109000010171000210980075
:101544000000060010f0a1000000060000002700c3
:10155400840fb60017003200a10920000001eb003f
:101564008007200053f820008049780081497800e2
:1015740082497800e2072000207c8000000161009d
:101584000200a000710520006004200043f8200040
:10159400804978008149780082497800eca10a00ea
:1015a400840f0000a8a00a00840f000080cf500020
:1015b400faff3a0000fc2f00860fb6000000a000de
:1015c400307c8800800c2000b0200a00880f0000c6
:1015d400f0f82f008a0fb6000060a000507c88004d
:1015e40080ff2f008a0fb6000000a000507c880006
:1015f400a1092000120020008007200053f82000d9
:10160400804978008149780082497800eca10a0079
:10161400840f0000a8a00a00840f000080cf5000af
:1016240010003200e2072000207c800000016100ed
:101634000200a000710520006004200043f820008f
:10164400804978008149780082497800eca10a0039
:10165400840f0000a8a00a00840f000080cf50006f
:10166400faff3a0010102000707c8800d007200098
:10167400807c880010222000907c88008fefa800d6
:101684003088a800572ea9003bcea90041cea8005f
:101694000000060001022100430620008181410070
:1016a4000002eb00910f100001003a00840878005a
:1016b400ea804000838f5000faff3a0000000600e1
:1016c4000203be008040eb001050e2001a0032001a
:1016d400018180000100e00007003200a302210024
:1016e4008000eb008100e800010278001300e000b4
:1016f4000d003a00010037000002eb00ea22b900b5
:1017040001022100048240008400780080187800df
:101714008688be006000b80030029800410298003c
:1017240011c0b30004003700ea814100e98f500082
:10173400ecff3a008040eb00014078000000060016
:101744000000e00003003200e10f50001f003a00e7
:101754001a00370001e1a9002028a9000002210095
:10176400310009000018eb000028a900f0f82f0050
:101774004008b6000060a000004288000421ef0089
:10178400703e200040088800003020000021b7008f
:101794000021a8000041a900f0fc2f000001b600c0
:1017a4000040a0000008880001e1a8002028a8004b
:1017b40010c0b30010f0b700050037002028a900be
:1017c4001070ef0010c0b300010037000040eb00c0
:1017d400000006003faea800000006003faea900ce
:1017e400000006003baea9000070ef000230ef00dd
:1017f4005000200030808800800c20002080880069
:10180400f6ff0700000006000050e2000d00320061
:101814000210e20002003a00eeff07000400370065
:10182400308080000210e30001003a00ebff070063
:101834000230ec00208080000210e3000100390037
:101844000230ef000000060030808800000006002f
:101854002080880000000600a1aa26000180b900ab
:10186400410add004f01de0002017200d0a3260010
:1018740002015000a280880000000600881f780042
:10188400083620008002eb0005027800850178000c
:10189400a28080001127200008007800c9fe0700fc
:1018a4000042eb00844178000441780041c1b30058
:1018b40008007800d5fe070010c0b30000f0b700a0
:1018c4004f047800000006000070ef000230ef00c3
:1018d400c2ff0700003620001aff070000000600c0
:1018e400881f780019ff0700beff0700c0cc200046
:1018f400d9ff070050002000d3ff0700800c200010
:10190400d3ff07000000eb008dff0700120020004a
:101914000300200060c0200069ff07009dfd070050
:101924001200200003002000008c200064ff070048
:10193400088c20000a50e20002003a0008007800f7
:1019440054ff0700408080003b0007009080800027
:1019540040000700f7ff37004400f80004082000a7
:101964002402880091025000050d780039027800a5
:101974001201c0000700c8000400cd001301c1001b
:101984000400cd00240598001b20e6000b0278001b
:101994001ca0e6000c02780004097800c1a1de0056
:1019a4008e8e41004606c3004606c0004606c000af
:1019b400d607c0005203c000aa0190003305980066
:1019c4009a017800130598004400f900000006000d
:020000040000fa
:1019d40020100000640000008000000010100000cf
:1019e400020000008000000012100000020000004d
:1019f40080000000001000000800000080000000cb
:101a0400141000000200000082000000ff3f0000ec
:101a140008100000080000008000000000300000f2
:101a24000800000080000000161000000a000000fa
:081a340080000000000000002a
:020000040000fa
:101a3c00800078000040eb00d801ab0002003a00b7
:101a4c00d10e880010c0b3000000060080007800a2
:101a5c000040eb00d821ab0002003a00e10e8800f8
:101a6c0010c0b3000000060001e0fe00e1c0200041
:101a7c00e2c82000c6c22500d7ff2f006901210053
:101a8c000a0023000b002000fcff2000cd492000a1
:101a9c002e03200000e0fe000000060060808000a5
:101aac00ae0c0200000000007060800040808800d6
:101abc0050618000908088005b2eaa000b88a900e2
:041acc0000400600d0
:00000001FF
